:100000000C944D000C948B010C946A000C946A00C3
:100010000C946A000C946A000C949F020C946A0081
:100020000C946A000C946A000C946A000C946A00A8
:100030000C946A000C946A000C946A000C946A0098
:100040000C946A000C946A000C946A000C946A0088
:100050000C946A00090212000101008019090400D1
:1000600000000000000012011001FF000008C0168F
:10007000DC05000101020001120377006100760037
:1000800065002000670065006E000C0353006100EE
:100090006D00690072000403090411241FBECFE53E
:1000A000D4E0DEBFCDBF10E0A0E6B0E0EAE3F7E0C9
:1000B00002C005900D92A439B107D9F720E0A4E958
:1000C000B0E001C01D92A73DB207E1F70E945003C6
:1000D0000C949B030C940000CF93DF936091BD00C0
:1000E000635067FDA1C08091BA00CCE0D0E0C81B8E
:1000F000D109CF53DF4F8091B9008D3209F082C012
:10010000683009F08FC083EC8093AD008AE580935E
:100110006100109294008881807639F0CE010E94AF
:10012000F7028F3F09F45DC063C08A811092B60068
:100130009981911106C01092B70026EB30E082E061
:100140004BC0953019F48093BE0038C0963081F5CD
:100150009B81913019F486E690E01FC0923019F42B
:1001600084E590E01AC09330F1F4811108C086E96B
:1001700090E09093BC008093BB0084E015C0813078
:1001800041F48AE890E09093BC008093BB008CE03F
:100190000BC0823041F488E790E09093BC008093DC
:1001A000BB0082E101C080E090E49093940020C005
:1001B000983079F0993031F48093C00026EB30E02C
:1001C00080E00AC081E09A3009F080E026EB30E060
:1001D00003C020EC30E081E03093BC002093BB00F2
:1001E00007C0988197FD8E8190E89093940007C096
:1001F0009F81911104C09E81981708F4892F8093E4
:10020000600010C08091940087FF0CC0CE010E9456
:1002100024038F3F21F48EE18093610003C081119C
:10022000109260001092BD008091610084FF46C072
:10023000809160008F3F09F441C0C82F893008F0D9
:10024000C8E08C1B809360009091AD0088E88927FE
:100250008093AD00CC2329F18091BB009091BC002C
:100260002091940026FF0AC0AEEAB0E0FC012C2FDA
:1002700034913D9331962150D9F708C0DC01EEEA64
:10028000F0E02C2F3D9131932150E1F72FEF2C0F0F
:1002900030E02F5F3F4F820F931F9093BC008093FD
:1002A000BB006C2F8EEA90E00E948701CC5FCC30BF
:1002B00019F08FEF80936000C093610084E190B3E8
:1002C0009C7031F48150D9F71092BE001092B800A2
:1002D000DF91CF91089585B7826085BF8BB7806429
:1002E0008BBF0895A82FB92F80E090E041E050EA3D
:1002F000609530E009C02D9182279795879510F081
:1003000084279527305EC8F36F5FA8F30895EADF6E
:100310008D939D930895CF93CFB7CF93DF93C395DC
:10032000839BE9F7839B0BC0839B09C0839B07C01A
:10033000839B05C0839B03C0839B01C089C06F93CF
:10034000C091BA00DD27CF53DF4F2F9365E5839B24
:1003500003C02F916F91E6CF0F931F934F9320E02F
:1003600040E15F9300B30C7003FB27F93F9350E02B
:100370003BE039C01C7040642F77012F5F5F1EC0C7
:10038000406810B31C702F7752501FC0406400B3F8
:100390002F770C70D1F15F5F00C023C0406210B3B3
:1003A0002F771C7091F15F5F00C025C00C70102783
:1003B000515012F45D5F0000115027952C3F10B38F
:1003C000C8F61C700127015027952C3FC8F642271C
:1003D000499300B30C7010274F73115027952C3F91
:1003E000A8F64695469510B31C7079F00127015088
:1003F00027952C3F98F66B5A60F3315000B3B0F656
:1004000000C010E41ABF002717C03B503195C31B32
:10041000D04010E41ABF0881033CF9F00B34E9F036
:100420002091B8001981110F1213EDCF093651F147
:100430000D3211F0013E39F70093BF003F915F91FB
:100440004F911F910F912F916F91CAB7C6FD67CF42
:10045000DF91CF91CFBFCF9118952091BF0022237C
:1004600069F31091BD00112339F534303AF130931E
:10047000BD002093B9001091BA003BE0311B3093CE
:10048000BA001CC00091BD000130B4F40AE53091FF
:10049000610034FD14C000936100CDEAD0E013C0C8
:1004A000052710E000C0000002BB1AC0052710E0BD
:1004B000221F1DC010E021C04AE502C032ED432FCB
:1004C000C4E1D0E032E011B31C60939A02B311BBD7
:1004D0005CE020E865E320FF052702BB2795179520
:1004E0001C3FF0F66695B8F7B1F720FF052702BB71
:1004F000279517951C3FD0F62795179517FF0527C9
:1005000000001C3F02BBB0F629913A9519F7037F12
:100510001091BE00110FC651D04002BB11F01093D4
:10052000B80010E41ABF086011B3137F402F437F57
:1005300054E05A95F1F702BB11BB42BB7FCF1F922B
:100540000F920FB60F9211245F936F937F938F9347
:100550009F93AF93BF93EF93FF93E0919700F0E0E9
:10056000EE59FF4F80818BBB8091970090E0019600
:1005700062E370E00E94730380939700FF91EF9114
:10058000BF91AF919F918F917F916F915F910F90EC
:100590000FBE0F901F9018951FBC1EBC9EB5986093
:1005A0009EBD833091F038F4813061F0823099F44F
:1005B0008EB582600FC0843059F0853061F48EB5FD
:1005C000856008C08EB5816005C08EB5836002C0AD
:1005D0008EB584608EBD8FB7F8941DBC1CBC7BBDEE
:1005E0006ABD8FBF89B7806189BF78940895FC0187
:1005F0002181223019F02430B9F022C08FB7F8944D
:100600002AB53BB5309398002AB53BB520939900A5
:1006100094E490939A008FBF88E990E09093BC0097
:100620008093BB0083E00895FC0186818093950050
:1006300010929600863130F085E18093950002C0DB
:1006400080E008958FEF0895CF93DF93D0919500C8
:10065000C09196006C0FCD17A0F0C09396006091EA
:100660009A0070E0762F662780919900680F711DBF
:10067000809198000E94CC0281E0CD1771F080E05B
:100680000CC0C61751F3FC012191CF01EC2FF0E013
:10069000E856FF4F2083CF5FDECFDF91CF910895E3
:1006A0008FEF8ABB9EE088E10FB6F894A89581BDD4
:1006B0000FBE91BD6FEF7FEF83E00E94CC020E94DE
:1006C0006B018B9A8AEFA895EFE3FFE13197F1F781
:1006D00000C000008150B9F778948B987894A89561
:1006E0000E946C00FBCF97FB072E16F4009407D0F6
:1006F00077FD09D00E94870307FC05D03EF4909552
:1007000081959F4F0895709561957F4F0895AA1B1D
:10071000BB1B51E107C0AA1FBB1FA617B70710F0EC
:10072000A61BB70B881F991F5A95A9F7809590951E
:0A073000BC01CD010895F894FFCF3D
:10073A00FF5A808F9FAEBDCAD7E2EBF3F9FDFFFFE8
:10074A00FDF9F3EBE2D7CABDAE9F8F8070605142CC
:10075A0035281D140C0602000002060C141D28354B
:04076A004251607028
:00000001FF
